{
  "contractName": "TaskContract",
  "abi": [
    {
      "anonymous": false,
      "inputs": [
        {
          "indexed": false,
          "internalType": "address",
          "name": "recipient",
          "type": "address"
        },
        {
          "indexed": false,
          "internalType": "uint256",
          "name": "taskId",
          "type": "uint256"
        }
      ],
      "name": "AddTask",
      "type": "event"
    },
    {
      "anonymous": false,
      "inputs": [
        {
          "indexed": false,
          "internalType": "uint256",
          "name": "taskId",
          "type": "uint256"
        },
        {
          "indexed": false,
          "internalType": "bool",
          "name": "isDeleted",
          "type": "bool"
        }
      ],
      "name": "DeleteTask",
      "type": "event"
    },
    {
      "inputs": [
        {
          "internalType": "string",
          "name": "taskText",
          "type": "string"
        },
        {
          "internalType": "bool",
          "name": "isDeleted",
          "type": "bool"
        }
      ],
      "name": "addTask",
      "outputs": [],
      "stateMutability": "nonpayable",
      "type": "function"
    },
    {
      "inputs": [],
      "name": "getMyTasks",
      "outputs": [
        {
          "components": [
            {
              "internalType": "uint256",
              "name": "id",
              "type": "uint256"
            },
            {
              "internalType": "string",
              "name": "taskText",
              "type": "string"
            },
            {
              "internalType": "bool",
              "name": "isDeleted",
              "type": "bool"
            }
          ],
          "internalType": "struct TaskContract.Task[]",
          "name": "",
          "type": "tuple[]"
        }
      ],
      "stateMutability": "view",
      "type": "function",
      "constant": true
    },
    {
      "inputs": [
        {
          "internalType": "uint256",
          "name": "taskId",
          "type": "uint256"
        },
        {
          "internalType": "bool",
          "name": "isDeleted",
          "type": "bool"
        }
      ],
      "name": "deleteTask",
      "outputs": [],
      "stateMutability": "nonpayable",
      "type": "function"
    }
  ],
  "bytecode": "0x608060405234801561000f575f80fd5b50610de68061001d5f395ff3fe608060405234801561000f575f80fd5b506004361061003f575f3560e01c806320df4581146100435780636e13f8181461005f578063aaba29071461007d575b5f80fd5b61005d60048036038101906100589190610710565b610099565b005b6100676101b1565b6040516100749190610913565b60405180910390f35b6100976004803603810190610092919061095d565b610493565b005b5f808054905090505f6040518060600160405280838152602001858152602001841515815250908060018154018082558091505060019003905f5260205f2090600302015f909190919091505f820151815f015560208201518160010190816101029190610b95565b506040820151816002015f6101000a81548160ff02191690831515021790555050503360015f8381526020019081526020015f205f6101000a81548173ffffffffffffffffffffffffffffffffffffffff021916908373ffffffffffffffffffffffffffffffffffffffff1602179055507f1f54e1ba1832d428fbd7e7792beaf62b1fc5a382c207ffd614209c1413e94fda33826040516101a4929190610cb2565b60405180910390a1505050565b60605f808054905067ffffffffffffffff8111156101d2576101d16105b7565b5b60405190808252806020026020018201604052801561020b57816020015b6101f861056d565b8152602001906001900390816101f05790505b5090505f805b5f805490508110156103db573373ffffffffffffffffffffffffffffffffffffffff1660015f8381526020019081526020015f205f9054906101000a900473ffffffffffffffffffffffffffffffffffffffff1673ffffffffffffffffffffffffffffffffffffffff161480156102b957505f15155f828154811061029957610298610cd9565b5b905f5260205f2090600302016002015f9054906101000a900460ff161515145b156103c8575f81815481106102d1576102d0610cd9565b5b905f5260205f2090600302016040518060600160405290815f8201548152602001600182018054610301906109c8565b80601f016020809104026020016040519081016040528092919081815260200182805461032d906109c8565b80156103785780601f1061034f57610100808354040283529160200191610378565b820191905f5260205f20905b81548152906001019060200180831161035b57829003601f168201915b50505050508152602001600282015f9054906101000a900460ff1615151515815250508383815181106103ae576103ad610cd9565b5b602002602001018190525081806103c490610d33565b9250505b80806103d390610d33565b915050610211565b505f8167ffffffffffffffff8111156103f7576103f66105b7565b5b60405190808252806020026020018201604052801561043057816020015b61041d61056d565b8152602001906001900390816104155790505b5090505f5b82811015610489578381815181106104505761044f610cd9565b5b602002602001015182828151811061046b5761046a610cd9565b5b6020026020010181905250808061048190610d33565b915050610435565b5080935050505090565b3373ffffffffffffffffffffffffffffffffffffffff1660015f8481526020019081526020015f205f9054906101000a900473ffffffffffffffffffffffffffffffffffffffff1673ffffffffffffffffffffffffffffffffffffffff160361056957805f838154811061050a57610509610cd9565b5b905f5260205f2090600302016002015f6101000a81548160ff0219169083151502179055507ff88a35c3d2016c409a46570b994a17b408dbc83c14a03f521512d50b85386d068282604051610560929190610d89565b60405180910390a15b5050565b60405180606001604052805f8152602001606081526020015f151581525090565b5f604051905090565b5f80fd5b5f80fd5b5f80fd5b5f80fd5b5f601f19601f8301169050919050565b7f4e487b71000000000000000000000000000000000000000000000000000000005f52604160045260245ffd5b6105ed826105a7565b810181811067ffffffffffffffff8211171561060c5761060b6105b7565b5b80604052505050565b5f61061e61058e565b905061062a82826105e4565b919050565b5f67ffffffffffffffff821115610649576106486105b7565b5b610652826105a7565b9050602081019050919050565b828183375f83830152505050565b5f61067f61067a8461062f565b610615565b90508281526020810184848401111561069b5761069a6105a3565b5b6106a684828561065f565b509392505050565b5f82601f8301126106c2576106c161059f565b5b81356106d284826020860161066d565b91505092915050565b5f8115159050919050565b6106ef816106db565b81146106f9575f80fd5b50565b5f8135905061070a816106e6565b92915050565b5f806040838503121561072657610725610597565b5b5f83013567ffffffffffffffff8111156107435761074261059b565b5b61074f858286016106ae565b9250506020610760858286016106fc565b9150509250929050565b5f81519050919050565b5f82825260208201905092915050565b5f819050602082019050919050565b5f819050919050565b6107a581610793565b82525050565b5f81519050919050565b5f82825260208201905092915050565b5f5b838110156107e25780820151818401526020810190506107c7565b5f8484015250505050565b5f6107f7826107ab565b61080181856107b5565b93506108118185602086016107c5565b61081a816105a7565b840191505092915050565b61082e816106db565b82525050565b5f606083015f8301516108495f86018261079c565b506020830151848203602086015261086182826107ed565b91505060408301516108766040860182610825565b508091505092915050565b5f61088c8383610834565b905092915050565b5f602082019050919050565b5f6108aa8261076a565b6108b48185610774565b9350836020820285016108c685610784565b805f5b8581101561090157848403895281516108e28582610881565b94506108ed83610894565b925060208a019950506001810190506108c9565b50829750879550505050505092915050565b5f6020820190508181035f83015261092b81846108a0565b905092915050565b61093c81610793565b8114610946575f80fd5b50565b5f8135905061095781610933565b92915050565b5f806040838503121561097357610972610597565b5b5f61098085828601610949565b9250506020610991858286016106fc565b9150509250929050565b7f4e487b71000000000000000000000000000000000000000000000000000000005f52602260045260245ffd5b5f60028204905060018216806109df57607f821691505b6020821081036109f2576109f161099b565b5b50919050565b5f819050815f5260205f209050919050565b5f6020601f8301049050919050565b5f82821b905092915050565b5f60088302610a547fffffffffffffffffffffffffffffffffffffffffffffffffffffffffffffffff82610a19565b610a5e8683610a19565b95508019841693508086168417925050509392505050565b5f819050919050565b5f610a99610a94610a8f84610793565b610a76565b610793565b9050919050565b5f819050919050565b610ab283610a7f565b610ac6610abe82610aa0565b848454610a25565b825550505050565b5f90565b610ada610ace565b610ae5818484610aa9565b505050565b5b81811015610b0857610afd5f82610ad2565b600181019050610aeb565b5050565b601f821115610b4d57610b1e816109f8565b610b2784610a0a565b81016020851015610b36578190505b610b4a610b4285610a0a565b830182610aea565b50505b505050565b5f82821c905092915050565b5f610b6d5f1984600802610b52565b1980831691505092915050565b5f610b858383610b5e565b9150826002028217905092915050565b610b9e826107ab565b67ffffffffffffffff811115610bb757610bb66105b7565b5b610bc182546109c8565b610bcc828285610b0c565b5f60209050601f831160018114610bfd575f8415610beb578287015190505b610bf58582610b7a565b865550610c5c565b601f198416610c0b866109f8565b5f5b82811015610c3257848901518255600182019150602085019450602081019050610c0d565b86831015610c4f5784890151610c4b601f891682610b5e565b8355505b6001600288020188555050505b505050505050565b5f73ffffffffffffffffffffffffffffffffffffffff82169050919050565b5f610c8d82610c64565b9050919050565b610c9d81610c83565b82525050565b610cac81610793565b82525050565b5f604082019050610cc55f830185610c94565b610cd26020830184610ca3565b9392505050565b7f4e487b71000000000000000000000000000000000000000000000000000000005f52603260045260245ffd5b7f4e487b71000000000000000000000000000000000000000000000000000000005f52601160045260245ffd5b5f610d3d82610793565b91507fffffffffffffffffffffffffffffffffffffffffffffffffffffffffffffffff8203610d6f57610d6e610d06565b5b600182019050919050565b610d83816106db565b82525050565b5f604082019050610d9c5f830185610ca3565b610da96020830184610d7a565b939250505056fea26469706673582212201ee4a761069fb90acd1e78627a47e4ef0cea61200acbafa5a0c6d429d58cce6a64736f6c63430008150033",
  "immutableReferences": {},
  "source": "// SPDX-License-Identifier: MIT\npragma solidity 0.8.21;\n\n\ncontract TaskContract {\n  event AddTask(address recipient, uint taskId);\n  event DeleteTask(uint taskId, bool isDeleted);\n\n  struct Task {\n    uint id;\n    string taskText;\n    bool isDeleted;\n  }\n\n  Task[] private tasks;\n  mapping(uint256 => address) taskToOwner;\n \n  function addTask(string memory taskText, bool isDeleted)\nexternal {\n   uint taskId = tasks.length;\n   tasks.push(Task(taskId, taskText, isDeleted));\n   taskToOwner[taskId] = msg.sender;\n   emit AddTask(msg.sender, taskId);\n}\n\nfunction getMyTasks() external view returns (Task[] memory){\n  Task[] memory temporary = new Task[](tasks.length);\n uint counter = 0;\n\n for (uint i=0; i<tasks.length; i++) {\n   if(taskToOwner[i] == msg.sender && tasks[i].isDeleted ==false) {\n   temporary[counter] = tasks[i];\n   counter++;\n }\n}\nTask[] memory result = new Task[](counter);\nfor (uint i=0; i < counter; i++) {\n  result[i] = temporary[i];\n}\nreturn result;\n}\nfunction deleteTask(uint taskId, bool isDeleted) external {\n  if(taskToOwner[taskId] == msg.sender ) {\n    tasks[taskId].isDeleted = isDeleted;\n    emit DeleteTask(taskId, isDeleted);\n  }\n}\n\n}",
  "sourcePath": "C:\\Users\\Tanveer\\Desktop\\DPMA\\contracts\\TaskContract.sol",
  "compiler": {
    "name": "solc",
    "version": "0.8.21+commit.d9974bed.Emscripten.clang"
  },
  "schemaVersion": "3.4.16",
  "updatedAt": "2023-12-27T10:22:07.815Z",
  "networkType": "ethereum",
  "devdoc": {
    "kind": "dev",
    "methods": {},
    "version": 1
  },
  "userdoc": {
    "kind": "user",
    "methods": {},
    "version": 1
  }
}